:02000000FD2FD2
:100E3800640008007708EF39F0007008F7007708B9
:100E48008312031385008230F100DD30F000F00BCF
:100E58002B2FF10B2B2F302FF61477081038F000BA
:100E68007008F700770883120313850008007708D5
:100E7800FB39F0007008F700770883120313850028
:100E88008230F100DD30F000F00B482FF10B482FD5
:100E98004D2FF61077080438F0007008F70077082F
:100EA80083120313850008000730831203139F0081
:100EB800FF30831603138600E03085000F30810071
:100EC800831203139011FF30F2007208F700F50146
:100ED80077080838F2007208F700770883120313BE
:100EE8008500C330F300CD30F200F20B792FF30BFD
:100EF800792F7708F739F2007208F700770883121C
:100F080003138500C330F300CD30F200F20B8A2FB3
:100F1800F30B8A2F0130F2007208F50702307502D0
:100F2800031C972F982F6C2F761083120313061C1F
:100F38009E2F76148312031306080139F20000303D
:100F48007618013072060319AA2FAB2FFA2F4130F9
:100F5800F300EE30F200F20BAF2FF30BAF2F0000CF
:100F68008312031306080139F200003076180130A5
:100F780072060319C02FC12FFA2F7610061CC52F31
:100F880076147618C82FC92FD82F1E270630F400DC
:100F98001330F300AD30F200F20BD02FF30BD02F4B
:100FA800F40BD02FD72FE62F0330F4008A30F3004C
:100FB8005530F200F20BDE2FF30BDE2FF40BDE2F91
:100FC800E52F3B27F61CE92FEA2FF42F770808387E
:100FD800F2007208F7007708831203138500FA2FCE
:100FE8007708F739F2007208F700EF2F1C279E2FB9
:080FF8000028F6018301582FC7
:08400000FF3FFF3FFF3FFF3FC0
:02400E003D3F34
:00000001FF
